:020000040800F2
:1000000070060020ED010008C1020008BD020008D2
:10001000BF020008A7020008CD020008000000008F
:10002000000000000000000000000000C502000801
:10003000A902000800000000C3020008C70200086F
:10004000070200080702000807020008070200086C
:10005000070200080702000807020008070200085C
:10006000070200080702000807020008070200084C
:10007000070200080702000807020008070200083C
:10008000070200080702000807020008070200082C
:10009000070200080702000807020008070200081C
:1000A000070200080702000807020008070200080C
:1000B00007020008070200080702000807020008FC
:1000C00007020008070200080702000807020008EC
:1000D00007020008070200080702000807020008DC
:1000E00007020008070200080702000800000000DD
:1000F0000000000000000000000000000000000000
:1001000000000000000000000702000807020008CD
:10011000070200080702000807020008070200089B
:10012000070200080702000807020008070200088B
:10013000070200080702000807020008070200087B
:10014000070200080702000807020008070200086B
:1001500000F002F800F03AF80AA090E8000C82449F
:100160008344AAF10107DA4501D100F02FF8AFF27C
:10017000090EBAE80F0013F0010F18BFFB1A43F085
:100180000103184794010000B4010000103A24BF95
:1001900078C878C1FAD8520724BF30C830C144BFEC
:1001A00004680C607047000000230024002500262E
:1001B000103A28BF78C1FBD8520728BF30C148BFCA
:1001C0000B6070471FB51FBD10B510BD00F031F8B2
:1001D0001146FFF7F7FF00F07BF800F04FF803B48B
:1001E000FFF7F2FF03BC00F057F800000948804712
:1001F00009480047FEE7FEE7FEE7FEE7FEE7FEE709
:10020000FEE7FEE7FEE7FEE704480549054A064B20
:1002100070470000CB020008510100087000002068
:1002200070060020700200207002002070477047A6
:100230007047754600F02CF8AE46050069465346F7
:1002400020F00700854618B020B5FFF7DDFFBDE8B8
:1002500020404FF000064FF000074FF000084FF02D
:10026000000B21F00701AC46ACE8C009ACE8C009BE
:10027000ACE8C009ACE8C0098D46704710B504462B
:10028000AFF300802046BDE81040FFF7A8BF000094
:10029000004870470C00002001491820ABBEFEE763
:1002A000260002007047FEE77047000002488168A0
:1002B000027811448160704700000020FEE7FEE7ED
:1002C000FEE770477047FFF7F1BF7047FEE7000099
:1002D0000F48816941F0200181610E494FF02230C1
:1002E000086000240B490F2520464FF480130C3181
:1002F00000E020460222521C9A42FCDB0C600222E3
:10030000521C9A42FCDB0860801CA842F2DDF0E738
:1003100000100240001801403803000800000020CF
:100320000C0000008C010008440300080C000020B1
:1003300064060000A8010008010000001000000091
:0403400000000000B9
:04000005080001519D
:00000001FF
