:020000040800F2
:100000000807002099010008411900083B18000862
:100010003D190008BB0500083D1D00080000000058
:10002000000000000000000000000000711900083E
:10003000BF050008000000004519000873190008FA
:10004000B3010008B3010008B3010008B3010008C0
:10005000B3010008B3010008B3010008B3010008B0
:10006000B3010008B3010008B3010008B3010008A0
:10007000B3010008B3010008B3010008B301000890
:10008000B3010008B3010008B3010008B301000880
:10009000B3010008B3010008B3010008B301000870
:1000A000B3010008B3010008B3010008B301000860
:1000B000B3010008B301000800000000B30100080C
:1000C000B30100080000000000000000B3010008B8
:1000D00000000000B3010008B301000800000000A8
:1000E000B3010008B3010008B301000800F002F8F2
:1000F00000F042F80AA090E8000C82448344AAF180
:100100000107DA4501D100F037F8AFF2090EBAE87D
:100110000F0013F0010F18BFFB1A43F0010318473B
:10012000D0260000F0260000103A24BF78C878C11D
:10013000FAD8520724BF30C830C144BF04680C60ED
:10014000704700000023002400250026103A28BF35
:1001500078C1FBD8520728BF30C148BF0B60704739
:10016000642900F07780752900F0748000207047C2
:100170001FB51FBD10B510BD00F0E5F91146FFF722
:10018000F7FF01F001FE00F003FA03B4FFF7F2FFFE
:1001900003BC00F00BFA00000948804709480047FB
:1001A000FEE7FEE7FEE7FEE7FEE7FEE7FEE7FEE727
:1001B000FEE7FEE704480549054A064B7047000084
:1001C000CB190008ED0000080801002008070020F6
:1001D00008030020080300200FB41CB5084B06AA32
:1001E0007B4469460090059800F095F9044600208C
:1001F000694600F0A3F920461CBC5DF814FB000022
:100200005903000070B5044685690068C10601D530
:10021000302600E02026C00707D070BDD4E90121B8
:1002200030469047206A401C20626D1EF6D570BD96
:1002300070B5044685690078C00707D170BDD4E960
:10024000012120209047206A401C20626D1EF6D5B7
:1002500070BD00002DE9F0410646002410687529A4
:10026000314616A510D0AFF30080002802DA4042D4
:1002700013A507E031688A0701D512A502E04907F6
:1002800004D511A5012401E0AFF3008000210A226A
:1002900006F1240709E0B0FBF2FCB0FBF2F302FB2D
:1002A0001C00303078541846491C0028F3D12346EE
:1002B0002A463046BDE8F04100F0CEB8000000000C
:1002C0002D0000002B000000200000002DE9F05F51
:1002D000894604464FF0000ADFF824B1FB44C0F819
:1002E00020A02046E168884700287DD0252806D038
:1002F000D4E901219047206A401C2062F1E70025E3
:100300005F462046E16888472028064607DB312EF5
:1003100005D2B81910F8200C08B10543F1E7A80779
:1003200001D525F00405C4F81CA00027C4F818A0C6
:100330002A2E09D0304601F01FFD38B304EB8708A0
:10034000303EC8F8186019E059F8041B204604EB49
:1003500087029161E1688847012F064618D1E0695C
:10036000002820DA25F020051DE0D8F8180000EB61
:10037000800006EB40003038C8F818002046E168DD
:100380008847064601F0F8FC0028EED1012F0AD07C
:100390002E2E08D12046E16888477F1C0646022F92
:1003A00045F02005C4DBA069002803DA404245F08F
:1003B0000105A061E80701D025F01005A6B1A6F15E
:1003C0004100192802D8203645F400654A463146D6
:1003D000204625604D46FFF7C3FE60B1012807D0D7
:1003E000ED1D25F0070000E007E000F1080978E7BF
:1003F00005F1040975E730467AE7206ABDE8F09F09
:10040000FE2400004FF0000200B5134694469646C5
:10041000203922BFA0E80C50A0E80C50B1F1200117
:10042000BFF4F7AF090728BFA0E80C5048BF0CC0C5
:100430005DF804EB890028BF40F8042B08BF704723
:1004400048BF20F8022B11F0804F18BF00F8012B95
:1004500070477047704770472DE9F0470D46994641
:100460009246044600F124080168880604D5E06934
:1004700021F01001216000E00120A84201DD471BAE
:1004800000E00027A1697A1902EB0900081AA061AF
:100490002078C00602D42046FFF7B4FE002608E00C
:1004A000D4E901211AF806009047206A401C761C06
:1004B00020624E45F4DB2078C0060AD52046FFF7BF
:1004C000A1FE06E0D4E9012130209047206A401CBB
:1004D0002062381EA7F10107F4DC07E0D4E901210E
:1004E00018F805009047206A401C2062281EA5F1DC
:1004F0000105F3DC2046FFF79BFE2078000602D5BD
:100500000220BDE8F0870120FBE7000001694A1CDA
:1005100002610878704700B58FB0CDE90131002144
:10052000059105497944CDE9031011466846FFF766
:10053000CDFE0FB000BD0000E5FFFFFF0A6802F826
:10054000010B0A607047754600F02CF8AE460500B6
:100550006946534620F00700854618B020B5FFF7DE
:1005600029FEBDE820404FF000064FF000074FF095
:1005700000084FF0000B21F00701AC46ACE8C009C1
:10058000ACE8C009ACE8C009ACE8C0098D467047CA
:1005900010B50446AFF300802046BDE81040FFF7D9
:1005A000F4BD000000487047A40000200149182055
:1005B000ABBEFEE726000200704700BFFEE77047B3
:1005C00072B600BFFEE7000070B5044600F096F971
:1005D00006462546681C10B104480078054400BF53
:1005E00000F08CF9801BA842FAD370BD10000020E7
:1005F0002DE9F84703460022944666E14FF00108D2
:1006000008FA02F4D1F8008008EA0400A0427DD183
:10061000DFF8CCA2D1F80480A8EB0A09D0453AD083
:1006200014DCB8F1030F50D009DCB8F1000F31D061
:10063000B8F1010F1CD0B8F1020F49D120E0B8F198
:10064000110F18D0B8F1120F42D11EE0B9F5881F72
:1006500025D006DCB9F5803F20D0B9F5801F37D111
:100660001AE0B9F5001F18D0B9F5041F30D117E012
:10067000D1F80CC02DE0D1F80C8008F1040C28E072
:10068000D1F80C8008F1080C23E0D1F80C8008F1B7
:100690000C0C1EE000BF00BF00BF00BF00BF00BFCA
:1006A000D1F80880B8F1000F02D14FF0040C0BE034
:1006B000D1F80880B8F1010F03D14FF0080C1C618C
:1006C00002E04FF0080C5C6103E04FF0000C00E02A
:1006D00000BF00BFFF2801D8984601E003F10408DD
:1006E0004646FF2802D84FEA820803E0A2F1080834
:1006F0004FEA88084746D6F800804FF00F0909FAFC
:1007000007F928EA09080CFA07F900E085E048EA49
:100710000908C6F80080D1F8048008F08058B8F1C4
:10072000805F7AD100BFDFF8BC81D8F8188048F02C
:100730000108DFF8B091C9F81880C846D8F81880C9
:1007400008F00108CDF8008000BF00BF4FEAB938BB
:100750004FEA920958F829504FEA82784FEA1879FF
:100760004FF00F0808FA09F825EA0805DFF8788144
:10077000434502D14FF000080FE0DFF87081434598
:1007800002D14FF0010808E0DFF86481434502D14F
:100790004FF0020801E04FF003084FEA82794FEA78
:1007A000197908FA09F848EA0505DFF848814FEA9F
:1007B000920948F82950D1F8048008F48038B8F537
:1007C000803F0AD1DFF83081D8F8008048EA00087D
:1007D000DFF82491C9F8008009E0DFF81C81D8F81F
:1007E000008028EA0008DFF81091C9F80080D1F8ED
:1007F000048008F40038B8F5003F0FD1DFF8F88026
:1008000008F10408D8F8008048EA0008DFF8E8900A
:1008100009F10409C9F800800EE055E0DFF8D8803E
:1008200008F10408D8F8008028EA0008DFF8C8902A
:1008300009F10409C9F80080D1F8048008F480188F
:10084000B8F5801F0ED1DFF8B08008F10808D8F89D
:10085000008048EA0008DFF8A09009F10809C9F80B
:1008600000800DE0DFF8908008F10808D8F80080DB
:1008700028EA0008DFF8809009F10809C9F800802B
:10088000D1F8048008F40018B8F5001F0ED1DFF885
:10089000688008F10C08D8F8008048EA0008DFF802
:1008A000589009F10C09C9F800800DE0DFF8488084
:1008B00008F10C08D8F8008028EA0008DFF8389022
:1008C00009F10C09C9F80080521CD1F8008028FAFF
:1008D00002F8B8F1000F7FF491AEBDE8F887000090
:1008E000000011100010024000080140000C0140FF
:1008F0000010014008000140000401400148006868
:100900007047000008000020034800680349097888
:1009100008440149086070470800002010000020CA
:1009200010B50848006840F0100006490860032030
:1009300000F098F80F2000F007F800F02BF80020E6
:1009400010BD00000020024070B504460E4800783B
:100950004FF47A71B1FBF0F00C490968B1FBF0F586
:10096000284600F0FBFB08B1012070BD102C07D217
:1009700000222146501E00F037F80548046001E0CF
:100980000120F2E70020F0E7100000201400002012
:100990000C00002008B500BF1148806940F001003C
:1009A0000F4988610846806900F00100009000BF8F
:1009B00000BF00BF0846C06940F08050C8610846CB
:1009C000C06900F08050009000BF00BF00BF054923
:1009D000486820F0E06040F08060486000BF08BDDB
:1009E00000100240000001402DE9F05F80460D46F6
:1009F0001646002701F0A4F9074639462A46334631
:100A000001F00700C0F1070ABAF1040F02D94FF054
:100A1000040A01E0C0F1070AD14600F1040ABAF164
:100A2000070F02D24FF0000A01E0A0F1030AD446FA
:100A30004FF0010A0AFA09FAAAF1010A0AEA020ABF
:100A40000AFA0CFA4FF0010B0BFA0CFBABF1010B9D
:100A50000BEA030B4AEA0B042146404601F078F901
:100A6000BDE8F09F00BF00F00702064B19684FF683
:100A7000FF031940044B0B4343EA0221014B196069
:100A800000BF70470CED00E00000FA0570B50446A9
:100A90000D460CB9012070BD5A48006800F00700EF
:100AA000A8420ED25748006820F007002843554955
:100AB00008600846006800F00700A84201D0012045
:100AC000E9E7207800F0020002281DD1207800F02C
:100AD0000400042805D14C48406840F4E0604A49CD
:100AE0004860207800F00800082805D14648406892
:100AF00040F46050444948604348406820F0F000AA
:100B0000A168084340494860207800F0010078B3AC
:100B10006068012806D13C48006800F4003090B9B4
:100B20000120B8E76068022806D13748006800F065
:100B3000007040B90120AEE73348006800F00200C1
:100B400008B90120A7E73048406820F00300616839
:100B500008432D494860FFF7D1FE064609E0FFF73C
:100B6000CDFE801B41F28831884202D9032092E7F2
:100B700007E02548406800F00C006168B0EB810F89
:100B8000EDD12048006800F00700A8420ED91D48AA
:100B9000006820F0070028431A49086008460068EA
:100BA00000F00700A84201D0012074E7207800F08F
:100BB0000400042807D11448406820F4E060E1688C
:100BC000084311494860207800F00800082808D13F
:100BD0000D48406820F46050216940EAC1000A498C
:100BE000486000F03FF808494968C1F30311074A1B
:100BF000515CC8400649086006480068FFF7A4FE3B
:100C0000002048E70020024000100240C6270008EC
:100C1000140000200C00002001480068704700000C
:100C20001400002000B5FFF7F7FF04494968C1F33D
:100C30000221034A515CC84000BD00000010024080
:100C4000D627000800B5FFF7E7FF04494968C1F35C
:100C5000C221034A515CC84000BD000000100240A0
:100C6000D6270008F0B585B00FF26C0C9CE8E010B8
:100C700001A8A0E8E0101CA52D6800950021002225
:100C8000002300240020194D696801F00C05F5B11E
:100C9000042D02D0082D19D101E0154819E001AD4D
:100CA000C1F38346AC5D01F4803555B10F4D6D68DD
:100CB000C5F340451DF805200D4D6543B5FBF2F326
:100CC00002E00C4D04FB05F3184602E000BF0848A3
:100CD00000BF00BF05B0F0BD020304050607080908
:100CE0000A0B0C0D0E0F1010010200000010024044
:100CF00000127A0000093D00F8B504460CB9012045
:100D0000F8BD207800F00100002878D0F84840684D
:100D100000F00C0004280CD0F548406800F00C00EE
:100D2000082811D1F248406800F48030B0F5803FC7
:100D30000AD1EF48006800F4003000285FD06068F6
:100D400000285CD10120DBE700BF6068B0F5803F80
:100D500006D1E748006840F48030E549086028E0A3
:100D6000606858B9E248006820F48030E0490860C3
:100D70000846006820F4802008601AE06068B0F53A
:100D8000A02F0BD1DA48006840F48020D8490860D1
:100D90000846006840F4803008600AE0D4480068E3
:100DA00020F48030D24908600846006820F4802092
:100DB000086000BF606888B1FFF7A0FD054606E047
:100DC000FFF79CFD401B642801D9032098E7C84821
:100DD000006800F400300028F2D010E0FFF78EFD2C
:100DE000054606E0FFF78AFD401B642801D9032071
:100DF00086E7BF48006800F400300028F2D1207870
:100E000000F00200022857D1B948406800F00C00F9
:100E100050B1B748406800F00C00082818D1B44819
:100E2000406800F4803098B9B148006800F00200D2
:100E300020B12069012801D0012061E7AC48006899
:100E400020F0F800616940EAC100A949086033E078
:100E50002069E8B10120A7490860FFF74FFD05466A
:100E600006E0FFF74BFD401B022801D9032047E7AE
:100E70009F48006800F002000028F2D09C480068FB
:100E800020F0F800616940EAC1009949086013E068
:100E9000002098490860FFF731FD054606E0FFF79E
:100EA0002DFD401B022801D9032029E79048006846
:100EB00000F002000028F2D1207800F00800082895
:100EC0002DD1A069B8B101208B490860FFF716FD4C
:100ED000054606E0FFF712FD401B022801D903205A
:100EE0000EE78348406A00F002000028F2D001209B
:100EF00000F02AFD13E000207F490860FFF7FEFCA8
:100F0000054606E0FFF7FAFC401B022801D9032042
:100F1000F6E67748406A00F002000028F2D1207817
:100F200000F00400042873D100277148C06900F064
:100F3000805070B900BF6E48C06940F080506C4965
:100F4000C8610846C06900F08050009000BF00BF33
:100F500001276A48006800F48070B0B967480068EB
:100F600040F4807065490860FFF7C8FC054606E05C
:100F7000FFF7C4FC401B642801D90320C0E65F488A
:100F8000006800F480700028F2D000BFE0680128FB
:100F900006D15748006A40F001005549086227E031
:100FA000E06858B95248006A20F0010050490862D0
:100FB0000846006A20F00400086219E0E06805288D
:100FC0000BD14B48006A40F00400494908620846CA
:100FD000006A40F0010008620AE04548006A20F01B
:100FE0000100434908620846006A20F004000862D4
:100FF00000BFE068A0B1FFF781FC054609E0FFF7FC
:101000007DFC401B41F28831884202D9032077E6FB
:1010100022E03748006A00F002000028EFD012E01A
:10102000FFF76CFC054608E0FFF768FC401B41F247
:101030008831884201D9032062E62D48006A00F019
:1010400002000028F0D1012F05D12948C06920F005
:1010500080502749C86100BFE069C8B32448406890
:1010600000F00C00082860D0E069022848D1002078
:1010700020490866FFF742FC054606E0FFF73EFC04
:10108000401B022801D903203AE61948006800F005
:1010900000700028F2D1206AB0F5803F07D11448D3
:1010A000406820F40030A168084311494860D4E941
:1010B000080108430E49496821F4741108430C499A
:1010C000486001200B490866FFF718FC054607E059
:1010D0003DE0FFF713FC401B022801D903200FE677
:1010E0000348006800F000700028F2D02FE00000F4
:1010F0000010024000004242800442420070004062
:10110000002014490866FFF7F9FB054606E0FFF7E3
:10111000F5FB401B022801D90320F1E50E480068C9
:1011200000F000700028F2D111E0E069012800D140
:10113000E6E50948466806F48031206A814204D118
:1011400006F47011606A814201D00120D8E50020C8
:10115000D6E50000000042420010024070B504468F
:101160002546681EB0F1807F01D301200FE0681E84
:101170004FF0E02148610F214FF0FF3000F0E8FD13
:1011800000204FF0E021886107200861002070BD39
:1011900030B502460B4600BF92F83C00012801D151
:1011A000022030BD012082F83C0000BF022082F8FE
:1011B0003D00106844681068816824F07004186865
:1011C0000443106844600E4D1068A84207D01068B0
:1011D000B0F1804F03D00B4D1068A84205D121F02B
:1011E00080015868014310688160012082F83D0049
:1011F00000BF002082F83C0000BF00BFD1E7000024
:10120000002C01400004004010B504460CB9012038
:1012100010BD94F83D0028B9002084F83C00204619
:1012200000F026F8022084F83D00211D206800F01F
:10123000CDFB012084F8460000BF84F83E00012168
:101240003F200155402001554120015500BF00BFFE
:10125000012084F8420043200155442001554520D7
:10126000015500BF012084F83D000020D0E70000B8
:1012700010B586B0044600200290039004900590BB
:1012800014492068884223D100BF1348806940F484
:101290000060114988610846806900F4006001908F
:1012A00000BF00BF00BF0846806940F004008861AD
:1012B0000846806900F00400019000BF00BF881557
:1012C000029000200390049002A90448FFF790F9CF
:1012D00006B010BD002C0140001002400008014083
:1012E0002DE9F04104460D4600BF94F83C0001286A
:1012F00002D10220BDE8F081012084F83C0000BF4B
:10130000022084F83D002068866826F0770626F4DF
:101310007F46206886602868502833D00CDC20285F
:1013200050D004DC00284BD0102851D149E030289F
:1013300049D040284CD139E060282DD0702807D002
:10134000B0F5805F03D0B0F5005F41D10DE040E023
:10135000D5E902136A68206800F07BFB2068866884
:1013600046F077062068866033E0D5E902136A68A4
:10137000206800F06EFB2068806840F4804021689F
:10138000886026E0EA686968206800F076FB5021F2
:10139000206800F069FB1CE0EA686968206800F0DA
:1013A000ADFB6021206800F05FFB12E0EA6869682D
:1013B000206800F062FB4021206800F055FB08E047
:1013C00000BF00BF00BF2968206800F04DFB00E0AF
:1013D00000BF00BF012084F83D0000BF002084F85A
:1013E0003C0000BF00BF85E72DE9F04104460D46F3
:1013F000164600BF94F83C00012802D10220BDE847
:10140000F081012084F83C0000BF96B9EB68D5E973
:101410000012206800F044FB2068806920F00C0076
:101420002168886120688069A9680843216888610B
:101430003DE0042E13D1EB68D5E90012206800F0DE
:1014400071FB2068806920F4406021688861206811
:101450008069A96840EA01202168886127E0082E98
:1014600012D1EB68D5E90012206800F078FB206803
:10147000C06920F00C002168C8612068C069A968B3
:1014800008432168C86112E0EB68D5E900122068C2
:1014900000F081FB2068C06920F440602168C861C9
:1014A0002068C069A96840EA01202168C86100BFBE
:1014B000002084F83C0000BF00BFA0E710B5044640
:1014C0000CB9012010BD94F83D0028B9002084F823
:1014D0003C00204600F025F8022084F83D00211D44
:1014E000206800F073FA012084F8460000BF84F8F9
:1014F0003E0001213F20015540200155412001556A
:1015000000BF00BF012084F8420043200155442061
:1015100001554520015500BF012084F83D00002001
:10152000D0E770472DE9F04104460D4615B994F80F
:101530003E000BE0042D02D13F20005D06E0082DA7
:1015400002D14020005D01E04120005D074615B951
:1015500094F842000BE0042D02D14320005D06E028
:10156000082D02D14420005D01E04520005D804649
:10157000012F02D1B8F1010F02D00120BDE8F081A6
:101580001DB9022084F83E000EE0042D03D1022193
:101590003F20015508E0082D03D1022140200155CC
:1015A00002E00221412001551DB9022084F84200C9
:1015B0000EE0042D03D102214320015508E0082D3F
:1015C00003D102214420015502E0022145200155AA
:1015D00035B1042D0BD0082D10D00C2D1CD114E0EA
:1015E0002068C06840F002002168C86015E02068EB
:1015F000C06840F004002168C8600EE02068C06840
:1016000040F008002168C86007E02068C06840F02A
:1016100010002168C86000E000BF00BF0122294619
:10162000206800F005FA10492068884207D0206839
:10163000B0F1804F03D00D49206888420CD120685A
:10164000806800F00706062E0CD02068006840F085
:1016500001002168086005E02068006840F0010092
:1016600021680860002089E7002C01400004004048
:1016700010B504460CB9012010BDA06900B100E00E
:1016800000BF94F83D0028B9002084F83C002046B3
:1016900000F028F8242084F83D002068C06820F479
:1016A00000502168C860204600F094FA2068006964
:1016B00020F49040216808612068406920F02A00E9
:1016C000216848612068C06840F400502168C86003
:1016D00000202064202084F83D0084F83E00002093
:1016E000CAE7000010B586B00446002002900390BF
:1016F000049005901949206888422DD100BF1848F0
:10170000C06940F400301649C8610846C06900F459
:101710000030019000BF00BF00BF0846806940F064
:10172000040088610846806900F00400019000BF51
:1017300000BF04200290022003900320059002A91C
:101740000848FEF755FF08200290002003900490FF
:1017500002A90448FEF74CFF06B010BD004400404B
:1017600000100240000801402DE9F84F04460E46E3
:10177000174699464FF0000A94F83D0020285AD1A8
:1017800006B117B90120BDE8F88F00BF94F83C00FE
:10179000012801D10220F6E7012084F83C0000BFB7
:1017A00000202064212084F83D00FFF7A7F882463E
:1017B000A784E784A068B0F5805F04D1206910B9E0
:1017C0000025B04602E035464FF0000800BF00207B
:1017D00084F83C0000BF1BE05346002280212046D5
:1017E000CDF8009000F074FA08B10320CBE745B9BA
:1017F000B8F80000C0F308002168486008F102084A
:1018000003E02878216848606D1CE08C401EE0846D
:10181000E08C0028E0D15346002240212046CDF83C
:10182000009000F055FA08B10320ACE7202084F8BE
:101830003D000020A7E70220A5E700BFFEE700006B
:1018400008B500BF0648806940F00400044988617B
:101850000846806900F00400009000BF00BF08BD8A
:101860000010024000B58BB000200790089009904E
:101870000A900590069001900290039004901F48F2
:101880001F4908607C20486000211D4881604FF698
:10189000FF11C1600021016141618161FFF7B4FC6A
:1018A00008B1FEF78DFE4FF48050079007A9144849
:1018B000FFF716FD08B1FEF783FE1148FFF7FEFDA6
:1018C00008B1FEF77DFE00200590069005A90C48A2
:1018D000FFF75EFC08B1FEF773FE002001900120C7
:1018E0000290002003900490002201A90448FFF711
:1018F0007BFD08B1FEF764FE0BB000BD002C01407B
:101900001800002010B50B480B4908604FF4165022
:101910004860002108488160C16001610C2141617B
:1019200000218161C161FFF7A3FE08B1FEF748FE07
:1019300010BD0000004400406000002000BFFEE732
:1019400000BFFEE77047000008B508490968C908EC
:101950004FF47A72B1FBF2F14143009100BF00BF36
:1019600000994A1E00920029F9D108BD14000020F8
:10197000704710B5FEF7C8FF10BD00B58FB0282125
:1019800005A8FEF73FFD14216846FEF73BFD022047
:1019900005900120099010200A9000200C9005A8C5
:1019A000FFF7AAF908B1FEF70BFE0F200090002008
:1019B000019002900390049000216846FFF766F8BA
:1019C00008B1FEF7FDFD0FB000BD704710B502680D
:1019D000154B984205D0B0F1804F02D0134B98427E
:1019E00003D122F070024B681A430F4B984205D086
:1019F000B0F1804F02D00D4B984203D122F44072D7
:101A0000CB681A4322F080034C6943EA0402026067
:101A10008B68C3620B688362034B984201D10B69E8
:101A200003630123436110BD002C0140000400400A
:101A300030B501F01F05012404FA05F3046A9C4344
:101A40000462046A01F01F0502FA05F52C430462E2
:101A500030BD30B50C46816821F47F4142EA032550
:101A600025432943816030BD0A46816821F0700119
:101A700042F0070319438160704730B50B461446A6
:101A8000026A056A25F001050562816921F0F0010D
:101A900041EA041122F00A021A438161026230BD58
:101AA00070B50C461546066A26F001060662816985
:101AB000026A104EB04205D0B0F1804F02D00E4EF7
:101AC000B04201D1012600E000261EB121F0030141
:101AD000294301E041F0010121F0F001F02606EA7E
:101AE0000316314322F00A0204F00A0632438161F0
:101AF000026270BD002C01400004004030B50B466E
:101B00001446056A25F0100505628169026A21F410
:101B1000704141EA043122F0A00242EA03128161DD
:101B2000026230BD70B50C461546066A26F01006F6
:101B300006628169026A21F4407141EA052121F4BB
:101B400070414FF4704606EA0336314322F0A0029A
:101B5000A02606EA041632438161026270BD70B5A8
:101B60000C461546066A26F480760662C169026A4A
:101B700021F00301294321F0F001F02606EA0316C3
:101B8000314322F400724FF4007606EA0426324311
:101B9000C161026270BD70B50C461546066A26F436
:101BA00080560662C169026A21F4407141EA05214A
:101BB00021F470414FF4704606EA0336314322F4B3
:101BC00000524FF4005606EA04363243C161026205
:101BD00070BD000070B504462168096921F44051C8
:101BE000E2681143226811612269A16811436269A8
:101BF00041EA02052168C96841F20C629143294318
:101C00002268D1602168496921F44071A2691143B9
:101C1000226851612D4A2168914202D1FFF712F8E2
:101C200001E0FEF7FFFF00EBC00101EB001162686D
:101C30009200B1FBF2F100EBC00202EB001263680C
:101C40009B00B2FBF3F26423B2FBF3F202EBC2039C
:101C500003EB0212A1EB8201322202EB011164229A
:101C6000B1FBF2F101F0F00100EBC00202EB001257
:101C700063689B00B2FBF3F26423B2FBF3F201EB67
:101C8000021200EBC00101EB001163689B00B1FB85
:101C9000F3F100EBC00303EB00136668B600B3FB7F
:101CA000F6F36426B3FBF6F303EBC30606EB03136C
:101CB000A1EB8301322303EB01116423B1FBF3F1A8
:101CC00001F00F0111442268916070BD003801409D
:101CD0002DE9F04104460D4617469846069E21E040
:101CE000701CF8B12EB1FEF709FEA0EB0800B0425F
:101CF00018D92068C06820F4D0702168C8602068B6
:101D0000406920F0010021684861202084F83D00EE
:101D100084F83E0000BF002084F83C0000BF032090
:101D2000BDE8F081206800682840A84201D1012068
:101D300000E00020B842D3D00020F1E700BFFEE76A
:101D400002480068C0F30220704700000CED00E07C
:101D500010B5002804DB0A07130E054A135406E0E9
:101D60000A07140E034A00F00F031B1FD45410BDC2
:101D700000E400E018ED00E030380A2801D201202C
:101D80007047002070470000C2B0FEF7C9FDFFF7A2
:101D9000F4FDFFF755FDFFF765FDFFF7B3FD0021EB
:101DA0002748FFF7BFFB4FF07250019000200090D2
:101DB00045E02448006800F0A7FB0446019900F0C4
:101DC000B7FB0090009800F0DDFA804642460B46D3
:101DD00000201D4900F080F8064600221B4B00F051
:101DE000D3F9044600F046F88246504600F058FB0E
:101DF000814600F071FB0746514600F065FC06463F
:101E0000134900F095FB054600F04AFB0446504696
:101E100000F046FB8046234642460EA102A8FEF78C
:101E2000DBF91FFA80FB4FF0FF335A4602A9104836
:101E3000FFF79AFC4FF4FA70FEF7C6FB00BFB8E755
:101E400018000020040000200000F03F00408F40F8
:101E50000000C84243616C63756C61746564204620
:101E6000726571203D2025642E25303275000000FA
:101E70006000002021F00042A2F16052B2F5801F04
:101E800001F0004328BFD2F17F6C0BD95FEA001C40
:101E900043EAC20242EB507018BF704728BF20F0DF
:101EA00001007047B2F5801FBCBF184670474FEA6B
:101EB000410C1CF5001F02D2084600F000BC70B5B2
:101EC00000F00CFA00000089FFF7F6BF4FF0004069
:101ED000A0F58000704700002DE9C04130B4DFF864
:101EE000A0C23CEA111418BF3CEA131400F0EC80C5
:101EF00081EA03051CEA111444EAD57418BF1CEAF0
:101F0000131500F0C780A4EB05044FF0004545EA27
:101F1000C12145EAC32341EA505143EA525304F137
:101F20007F74994204F500344FEAC0204FEAC22280
:101F300008BF904200F09C804FEA13650FF24016F4
:101F4000765D4FEA134506FB05F7C7F1807706FB80
:101F500007F74FEAD737A7FB03687642C8F5803802
:101F6000A7FB06CE38BFA8F1010807FB08E64FF033
:101F7000000EA6FB028CE6FB03CEDCF1000CCEF1DA
:101F8000004E38BFAEF1010EA6FB0C584FF0000713
:101F90004FF00005E6FB0E87A1FB08C6A0FB07CEAD
:101FA00016EB0E0645F10005E1FB076515F1E04E65
:101FB0007EBFA4F580345FEA46066D4116F18007C6
:101FC00045F100054FEA17274FEA066647EA05671D
:101FD000A6F1DE46B6F1805F4FEA15251FD93846D7
:101FE00024F0010C05EBC471BCF1FE6F01EB0C1188
:101FF00002D8F0BCBDE8008124425CBF01F5801E20
:102000009EEAC47F02D4F0BCBDE80081244238D4EB
:10201000F0BCA1F1C041BDE8004100F0ADB94FEA0C
:10202000D22242EA43524FEAD323A7FB02864FEA69
:10203000D02040EA415007FB03661EEA0E0F4FEA2C
:10204000D12105FB026658BFA6EB0056B6EB005641
:102050004FEA520E4EEAC37E18EB0E0E56EB530EAD
:10206000BDD518EB02085E417F1C55F10005B6E7AF
:102070004FF480154FF000074FF000064FF00008B6
:10208000ADE7F0BC4FF0000001F1C04101F00041AC
:10209000BDE8008111EA0C1F0CEA131500D00CE01A
:1020A00013EA0C1F00F025804FF00000F0BC81EA1D
:1020B000030101F00041BDE80081F0BCBDE8004132
:1020C00081EA030100F058B9F0BCBDE8004170B5E9
:1020D00000F004F9097EFC3E00F007B881EA030134
:1020E0004FF0000001F00041704781EA030100F069
:1020F00043B9F0BCBDE800414FF0000021497047F2
:10210000FFFDFBF9F7F5F4F2F0EEEDEBE9E8E6E4BC
:10211000E3E1E0DEDDDBDAD8D7D5D4D3D1D0CFCD43
:10212000CCCBCAC8C7C6C5C4C2C1C0BFBEBDBCBB7C
:10213000BAB9B8B7B6B5B4B3B2B1B0AFAEADACAB77
:10214000AAA9A8A8A7A6A5A4A3A3A2A1A09F9F9E51
:102150009D9C9C9B9A999998979796959594939303
:10216000929191908F8F8E8E8D8C8C8B8B8A89899A
:10217000888887878685858484838382828181801D
:102180000000FF070000F87FDFF848C170B51CEAC7
:10219000111E1EBF1CEA13159EEA0C0F95EA0C0FC8
:1021A00000F06F8081EA030423EA4C134EEAD47EE8
:1021B00021EA4C1141F4801143F48013AE44A1FB99
:1021C000024CA0FB0365AEF17F7E361955EB0C0582
:1021D000A1FB034C4CF10003A0FB021C16EB0C0608
:1021E000654153F10003094218BF46F0010613F49C
:1021F000007F0BD14FEA03314FEA0530340341EA47
:10220000155140EA16506FF003020AE04FEAC3216D
:102210004FEAC520F40241EA555140EA56506FF0AA
:10222000020202EB2E4201EB025585EACE710AD082
:102230005FEA440C18BF24F0004450F1000041F163
:10224000000120EAD47040F2FE7C624500D270BDED
:10225000A84214BF4FF080444FF04044002E08BF06
:102260000024BEF1806FA8BFA1F1C041BDE870405D
:1022700080F282804FF0000001F1C04101F0004186
:1022800070479EEA0C0F0CEA131518BF95EA0C0F65
:1022900006D04FF0000081EA030E0EF0004170BD41
:1022A00000F01CF88900013E00F007B800F009B802
:1022B0004FEA430C5FEA5C5C08D081EA030100F05E
:1022C0005BB84FEA410C5FEA5C5CF6D14FF000006E
:1022D000014970470000FF070000F87F0EF1020E71
:1022E0002EF0030E5EF8046B364205D4012A43EB50
:1022F000030515F5001F12D8012841EB010C1CF550
:10230000001F0CD80ED14FEAD17C15F5001F0CEB45
:102310004C0C0CF1020C08BF4CEBD37C04E04FF0EA
:10232000080C01E04FEAD37C0CEB4C0526FA05F6CD
:1023300006F00706B6F1040C06D20EEB860CBDE8DB
:1023400070404CF0010C6047DFE80CF0090B020212
:102350004FF000414FF00000A1F5002170BD19467B
:102360001046012851EB010418BFD4F5001484BFB6
:10237000002001F0004170BD0808A0F500114FEAEF
:102380003101704743004FEAD30C4FEA3C0C434005
:102390001FBF40070CF1605113F0FE4F70471CF057
:1023A000006F03D100200CF0004170470CF0004397
:1023B00043EA507010B540EACC0000F03AF900BF93
:1023C000000000924FEA0001FFF7D6BF4FF0004136
:1023D0004FF00000A1F500217047000090EA010FC6
:1023E00048BF81F0004100F18081421A3CBF801A51
:1023F00089184FEAD0524FF07F4C1CEA410FA2EBF4
:10240000D15318BF9CEA026F00F03B804FF0004CA4
:102410004CEA00204CEA012121FA03FC10EB0C0CE1
:102420001ED202F1FF325FEA1C2040EBC25038BFDF
:1024300070471CF07F0F4FEA400C18BFBCF17F4F74
:1024400038BF7047C3F12003994008BF20F0010056
:10245000BCF17F4F38BF7047A0F1C04000F02FB9EA
:102460004FEA3C00000A40EBC25028BF1CF0FF0FAF
:102470004FEA400CE6D018BFBCF17F4F38BF704721
:10248000EAE79CEA026F05D010EA5C0F08BF00F093
:102490000040704710B500F0CCF800BF64FBBE3EB2
:1024A00041000B0ED3F19E0208D950F400034FEA0D
:1024B000032323FA02F048BF4042704710B500F0F2
:1024C000B8F800BF49922480002070476FF00042A6
:1024D00082EA20007047000010F0004148BF4042EF
:1024E000B0FA80F310FA03F2C3F19D030BD051EA66
:1024F000C35101EB1220530638BF704700F10100B1
:1025000008BF20F001007047B0FA80F310FA03F220
:10251000C3F19D030AD0D90501EB1220530638BF41
:10252000704700F1010008BF20F001007047000073
:102530004FF47F0C1CEAD0121EBF1CEAD11392EAA2
:102540000C0F93EA0C0F00F0478090EA010F48BF90
:1025500042F480724FF0004C4CEA00204CEA01211A
:1025600002EB0302A0FB0113A2F50002002918BF31
:1025700043F001035B0028BF4FEA330342EB2242E2
:102580005FEA132C4CEBC2502EBFBCEB436FB2F58D
:102590007C0F70474FEA036CBCF1004F08BF20F07E
:1025A0000100B2F57C0F38BF70470BD582F0FF02F7
:1025B00012F5803FC8BF704700F1C040D8BF00F09F
:1025C0000040704700F5000C5FEA4C0C48BF7047B4
:1025D000B0F1C04000F073B890EA010F0CEAD113DB
:1025E00048BF42F48072624538BF634504D280EA36
:1025F000010000F00040704710B500F01AF800BF6D
:102600008900013E00F007B800F009B85FEA410C0C
:102610005FEA1C6C08D080EA010000F050B85FEA65
:10262000400C5FEA1C6CF6D14FF00040A0F5800032
:1026300070470EF1020E2EF0030E5EF8044B24429A
:1026400004D44FEA4102B2F17F4F11D84FEA400360
:10265000B3F17F4F0CD80ED14FEAD07CB2F17F4F4F
:102660000CEB4C0C0CF1020C08BF4CEBD17C04E0E1
:102670004FF0080C01E04FEAD17C0CEB4C0324FA3C
:1026800003F404F00704B4F1040C06D20EEB840C3E
:10269000BDE810404CF0010C6047DFE80CF0070883
:1026A00002024FF00040A0F5800010BD0846420035
:1026B00018BFD2F1807288BF00F0004010BDFF212A
:1026C00041EAD050C005704780F0004090EA010F09
:1026D0007FF58BAE81F0004100F007B890EA010F62
:1026E00048BF81F000413FF580AE421A04D882F025
:1026F0000042A0EB020011444FEAD0524FF07F4C51
:102700001CEA410FA2EBD15318BF9CEA026F4AD0DA
:102710004FF0004C4CEA00204CEA012121FA03FC66
:10272000B0EB0C0C0FD412F0FE0F36D05FEA4C0069
:102730001DD5001240EBC25038BF70471CF03F0F50
:1027400018BF70470BE0A2F101025FEA1C2040EBCA
:10275000C25038BF70471CF07F0F18BF7047C3F1DD
:102760002003994014BF401E20F0010070478008EC
:102770004FEA122308BF7047B0FA80FCA2EB0C02AC
:10278000CCF1280C60FA0CF093EA122F04BF00EB96
:10279000C25070474FEAC3707047130A5FEADC10FB
:1027A00008BF7047F6E79CEA026F04D010EA5C0F9E
:1027B00008BF0020704710B5FFF73BFF40DFF63E33
:1027C00081F000407047000000000000000001029E
:1027D00003040607080900000000010203040400C6
:1027E00000080000000000000002000100001000CE
:1027F0001028000800000020180000002801000830
:102800002828000818000020F006000044010008F5
:1028100000000000000000000000000010000000A8
:08282000010000000024F40097
:04000005080000ED02
:00000001FF
