:020000040800F2
:1000000070060020ED010008CD020008C5020008BE
:10001000C9020008A7020008DF0200080000000073
:10002000000000000000000000000000D3020008F3
:10003000AB02000800000000D1020008D502000851
:10004000070200080702000807020008070200086C
:10005000070200080702000807020008070200085C
:10006000070200080702000807020008070200084C
:10007000070200080702000807020008070200083C
:10008000070200080702000807020008070200082C
:10009000070200080702000807020008070200081C
:1000A000070200080702000807020008070200080C
:1000B00007020008070200080702000807020008FC
:1000C00007020008070200080702000807020008EC
:1000D00007020008070200080702000807020008DC
:1000E00007020008070200080702000800000000DD
:1000F0000000000000000000000000000000000000
:1001000000000000000000000702000807020008CD
:10011000070200080702000807020008070200089B
:10012000070200080702000807020008070200088B
:10013000070200080702000807020008070200087B
:10014000070200080702000807020008070200086B
:1001500000F002F800F03AF80AA090E8000C82449F
:100160008344AAF10107DA4501D100F02FF8AFF27C
:10017000090EBAE80F0013F0010F18BFFB1A43F085
:1001800001031847B4010000D4010000103A24BF55
:1001900078C878C1FAD8520724BF30C830C144BFEC
:1001A00004680C607047000000230024002500262E
:1001B000103A28BF78C1FBD8520728BF30C148BFCA
:1001C0000B6070471FB51FBD10B510BD00F031F8B2
:1001D0001146FFF7F7FF00F085F800F04FF803B481
:1001E000FFF7F2FF03BC00F057F800000948804712
:1001F00009480047FEE7FEE7FEE7FEE7FEE7FEE709
:10020000FEE7FEE7FEE7FEE704480549054A064B20
:1002100070470000DD020008510100087000002056
:1002200070060020700200207002002070477047A6
:100230007047754600F02CF8AE46050069465346F7
:1002400020F00700854618B020B5FFF7DDFFBDE8B8
:1002500020404FF000064FF000074FF000084FF02D
:10026000000B21F00701AC46ACE8C009ACE8C009BE
:10027000ACE8C009ACE8C0098D46704710B504462B
:10028000AFF300802046BDE81040FFF7A8BF000094
:10029000004870470C00002001491820ABBEFEE763
:1002A00026000200704700BFFEE770470348006861
:1002B000034909780844014908607047000000209C
:1002C0000800002000BFFEE700BFFEE700BFFEE71A
:1002D0007047704710B5FFF7E9FF10BD704700BFCA
:1002E000FEE70000124CA46944F00404104DAC6118
:1002F0004FF022340F4D2C60002202210F2300BF4B
:10030000114612E0002000E0401CB0F5801FFBDB2E
:10031000084C0C342260002000E0401CB0F5801F27
:10032000FBDB044C0C342160891C9942E8DCE9E7D2
:10033000001002400018014058030008000000208F
:100340000C0000008C010008640300080C00002071
:1003500064060000A8010008000000001000000072
:040360000100000098
:04000005080001519D
:00000001FF
